S009000067332E73333751
S11300000000022091010000BD010000BD010000BC
S1130010BD010000BD010000BD010000BD010000E4
S1130020BD010000BD010000BD010000BD010000D4
S1130030BD010000BD010000BD010000BD010000C4
S1130040BD010000BD010000BD010000BD010000B4
S1130050BD010000BD010000BD010000BD010000A4
S1130060BD010000BD010000BD010000BD01000094
S1130070BD010000BD010000BD010000BD01000084
S1130080BD010000BD010000BD010000BD01000074
S1130090BD010000BD010000BD010000BD01000064
S11300A0BD010000BD010000BD010000BD01000054
S11300B0BD010000BD010000BD010000BD01000044
S11300C0BD010000BD010000BD010000BD01000034
S11300D0BD010000BD010000BD01000010B5054CCC
S11300E0237833B9044B13B10448AFF300800123E0
S11300F0237010BD740000200000000018120000DE
S113010008B5034B1BB103490348AFF3008008BD96
S1130110000000007800002018120000154B002B8E
S113012008BF134B9D46A3F5803A00218B460F462A
S11301301348144A121A01F04BF80F4B002B00D04D
S113014098470E4B002B00D0984700200021040054
S11301500D000D48002802D00C48AFF3008001F0D8
S113016013F82000290000F071FF00F0F9FF00BF30
S11301700000080000000220000000000000000051
S11301807400002090000020000000000000000027
S1130190064880470649074A074B9A42BEBF51F8B2
S11301A0040B42F8040BF8E7FFF7B8FF0D03000057
S11301B0241200000000002074000020FEE700BFAD
S11301C080B400AF034BDB6C1B0EDBB21846BD469C
S11301D080BC7047B081E00F80B582B000AF00F002
S11301E015F87860074B5B6803F00F037A6822FA0E
S11301F003F37B60044A7B6813607B681846083706
S1130200BD4680BD00800C400800002080B582B04F
S113021000AF334BDB6A03F47053B3F5805F0AD04D
S1130220B3F5005F03D0B3F5006F08D00BE02D4B9E
S11302301B687B6047E04FF400437B6043E02A4B3C
S11302401B687B603FE0264BDB6803F4E063B3F597
S1130250007F1BD0B3F5007F05D8002B24D0B3F565
S1130260807F16D02BE0B3F5806F09D0B3F5A06F73
S113027003D0B3F5407F06D021E01C4B7B6021E026
S11302801B4B7B601EE01B4B7B601BE01A4B7B60AF
S113029018E0FFF795FF0346122B02D9174B7B603A
S11302A010E0174B7B600DE0FFF78AFF0346122B2B
S11302B002D9144B7B6005E0134B7B6002E0002302
S11302C07B6000BF00BF064B1B689B0B03F007035A
S11302D001337A68B2FBF3F318460837BD4680BD94
S11302E000800C400400002000000020003FAB010F
S11302F0406F4001809FD500C0D8A70040B564007E
S1130300C0CF6A00804F120040420F0080B400AF9B
S113031000BFBD4680BC704780B400AF4FF40043BB
S11303201846BD4680BC704780B400AF4FF47A7362
S11303301846BD4680BC704780B400AF024B1B68B2
S11303401846BD4680BC70470400002080B487B0C6
S113035000AFF860B9607A60FB6803F10473DA00F7
S1130360BB6813449B007B617B697A681A6000BF99
S11303701C37BD4680BC704780B485B000AF786040
S113038039607B6803F10473DA003B6813449B0013
S1130390FB60FB681B6818461437BD4680BC704779
S11303A080B485B000AF78607B68002B03D07B6895
S11303B0B3F5004F00BF7B68B3FA83F3C3F11F03A7
S11303C0FB60FB6818461437BD4680BC70470000CC
S11303D080B400AF034BDB6C1B0EDBB21846BD468A
S11303E080BC7047B081E00F80B400AF034BDB6C7E
S11303F01B0CDBB21846BD4680BC7047B081E00FD1
S113040080B582B000AFFFF7EFFF03464A2B04D05C
S1130410792B02D0482B23D024E0154B1B699BB2C7
S11304201B029BB203F47C53FB80114B9B691B0999
S11304301B0103F0F0039AB2FB881343FB800C4BBF
S1130440DB691B0903F00F039AB2FB881343FB809B
S1130450FB88B3F5017F01D3064B04E0064B02E0B1
S1130460054B00E0002318460837BD4680BD00BF99
S1130470D0FF0FE000366E010048E80180B584B07B
S113048000AF78600123FB60FFF7BAFF02467B6888
S1130490934204D80023FB600023BB600BE0FFF70A
S11304A0AFFF03465B007A689A4202D80123BB601F
S11304B001E00223BB60FA681E210848FFF746FFEB
S11304C0064B5B6823F48072BB681B020349134329
S11304D04B6000BF1037BD4680BD00BF00800C409C
S11304E080B582B000AF1E210448FFF745FF786055
S11304F07B6818460837BD4680BD00BF00800C40AD
S113050080B582B000AF214B5B6903F4E063B3F5BF
S1130510007F1CD0B3F5007F05D8002B25D0B3F5A0
S1130520807F1FD02AE0B3F5C06F24D0B3F5E06F0D
S11305301ED0B3F5407F21D1FFF74AFF0346122BAB
S113054002D9134B7B601CE0124B7B6019E0FFF770
S11305503FFF0346122B02D90F4B7B6011E00F4B78
S11305607B600EE00E4B7B600BE00E4B7B6008E083
S11305700D4B7B6005E00D4B7B6002E000237B604C
S113058000BF7B6818460837BD4680BD00800C401C
S1130590804F120040420F0040B56400C0CF6A0093
S11305A0C0D8A700809FD500406F4001003FAB0139
S11305B080B582B000AF0D4800F024FA0346FB700A
S11305C0FB78072B05D0092B07D1FFF71FFE7860B6
S11305D006E0FFF795FF786002E000237B6000BF30
S11305E07B6818460837BD4680BD00BF06000E0074
S11305F090B585B000AF78600023BB607B68344A57
S1130600934203D0334A934200D000E000BF78689D
S113061000F0F8F90346FB607B682D4A934203D04F
S11306202C4A934206D00CE02B4B9B6A03F0030345
S1130630FB6006E0284B9B6A9B0803F00303FB6006
S113064000BFFB68032B39D801A252F823F000BF86
S113065087060000610600006906000071060000BC
S1130660FFF75AFEB8602DE0FFF766FEB86029E098
S1130670FFF7B2FD0446FFF733FF0346013324FAC4
S113068003F3BB601EE00023BB607B68104A934207
S113069003D07B680F4A934213D10F4B9A6A7B684D
S11306A00B498B4201D1102300E0142322FA03F3F7
S11306B0002B06D0FFF738FEB86002E00023BB60D1
S11306C000E000BFBB6818461437BD4690BD00BFAC
S11306D002001C0003001E0000800C4080B483B0A4
S11306E000AF7860094B5B6D03F00103002B07D169
S11306F000BF064B1A6D7B681340002BF9D100E054
S113070000BF0C37BD4680BC704700BF00800C4062
S113071080B582B000AF104800F074F90346FB7056
S1130720FB78032B07D0092B09D0022B0BD1FFF741
S113073003FE78600AE0FFF7EFFD786006E0FFF75C
S113074065FD786002E000237B6000BF7B6818468B
S11307500837BD4680BD00BF0723240080B586B09E
S113076000AF78600B46FB7000233B617B681B0A7B
S113077003F00F03013B092B45D801A252F823F0E3
S1130780BD070000C3070000A90700000708000018
S113079007080000C9070000D3070000070800008D
S11307A007080000DD070000194B7B61194800F0C1
S11307B03DF803461846FFF761FE12E0164B7B61D5
S11307C00FE0164B7B610CE0154B7B6101233B6111
S11307D007E0144B7B6110233B6102E0124B7B6109
S11307E000BF7B681B0B03F01F03FB603B69002BFE
S11307F002D03869FFF772FFFB781A46F968786906
S1130800FFF7A4FD00E000BF1837BD4680BD00BF60
S113081040800C400043020008800C4044800C409F
S113082058800C4060800C4078800C4090B585B0B6
S113083000AF78607B6803F47813B3F5C01F00F051
S1130840AB80B3F5C01F1AD8B3F5602F00F0BF809A
S1130850B3F5602F08D8B3F5003F3CD0B3F5802F33
S11308602DD0002B27D0BEE0B3F5901F3CD0B3F5BC
S1130870B01F47D0B3F5801F00F0AD80B3E0B3F5EF
S1130880101F00F0AC80B3F5101F0AD8B3F5E01FB9
S113089025D0B3F5F01F7AD0B3F5D01F00F08980CE
S11308A0A1E0B3F5281F4ED0B3F5301F62D0B3F5E5
S11308B0201F35D097E0FFF7A9FCF86096E0FFF71A
S11308C0A5FCF8604C4B9B6803F00F03FA6822FA0E
S11308D003F3FB608AE0FFF77FFCF86086E047489B
S11308E0FFF786FEF86081E04448FFF781FEF86078
S11308F0414B9B6E1B0903F00F03FA6822FA03F3C2
S1130900FB6073E03D48FFF773FEF8603A4B9B6E63
S11309101B0A03F00F03FA6822FA03F3FB6065E095
S11309203648FFF765FEF860334B9B6E1B0B03F0F4
S113093003041020FFF734FD03462344FA6822FA27
S113094003F3FB6052E02D48FFF752FEF8602A4B98
S11309509B6E1B0B03F00303FA6822FA03F3FB609C
S1130960254BDB6F03F007030133FA68B2FBF3F3A3
S1130970FB603BE02148FFF73BFEF8601E4B9B6E9B
S113098003F00303FA6822FA03F3FB602EE01C4829
S1130990FFF72EFEF86029E01948FFF729FEF860FA
S11309A0154B1B6F03F00303FA6822FA03F3FB6091
S11309B01CE01348FFF71CFEF8600F4B1B6F1B096C
S11309C003F00303FA6822FA03F3FB600EE0FFF777
S11309D0EFFDF8600AE0FFF793FDF86006E0FFF72B
S11309E097FEF86002E00023FB6000BFFB68184636
S11309F01437BD4690BD00BF00800C4002001C00AF
S1130A0003001E0080B485B000AF78600123FB733F
S1130A107B6803F00F03BB60BB68013B062B00F24D
S1130A20938001A252F823F0450A00007B0A0000DB
S1130A30B70A0000490B0000490B0000F30A00004C
S1130A40150B0000454BDB6A03F47053B3F5805F6C
S1130A5009D0B3F5005F03D0B3F5006F06D008E00A
S1130A600223FB7308E00323FB7305E00423FB73F9
S1130A7002E00523FB7300BF69E0384B9B6A03F077
S1130A800303022B06D0032B07D0012B08D1032329
S1130A90FB730FE00223FB730CE00623FB7309E0F6
S1130AA02E4B9B6A03F48033002B02D00A23FB7382
S1130AB000E000BF4BE0294B9B6A03F00C03082BBA
S1130AC006D00C2B07D0042B08D10323FB730FE0B3
S1130AD00223FB730CE00623FB7309E01F4B9B6AA4
S1130AE003F48013002B02D00A23FB7300E000BF41
S1130AF02DE01A4B1B6803F08053002B03D0B3F195
S1130B00805F03D023E00723FB7302E00923FB7318
S1130B1000BF1CE0114BDB6A03F46033B3F5803F84
S1130B2008D0B3F5003F08D0B3F5004F08D109232E
S1130B30FB7308E00223FB7305E00323FB7302E06D
S1130B400123FB7300BF02E00023FB7300BFFB7BA8
S1130B5018461437BD4680BC704700BF00800C4067
S1130B6080B483B000AF03463960FB71FB79002B7E
S1130B700DD0FB79012B0AD0FB79022B07D0FB792E
S1130B80032B04D0FB79042B01D0FB79052B012224
S1130B903B6802FA03F30749FA7918461346DB0067
S1130BA013449B000B441433186000BF0C37BD463C
S1130BB080BC70470060004080B483B000AF03463F
S1130BC03960FB71FB79002B0DD0FB79012B0AD026
S1130BD0FB79022B07D0FB79032B04D0FB79042B80
S1130BE001D0FB79052B01223B6802FA03F3074984
S1130BF0FA7918461346DB0013449B000B44103368
S1130C00186000BF0C37BD4680BC704700600040D0
S1130C1080B584B000AFB9607B600346FB731346B4
S1130C20BB73FB7B002B0DD0FB7B012B0AD0FB7B22
S1130C30022B07D0FB7B032B04D0FB7B042B01D0BE
S1130C40FB7B052BBB7B002B0DD07B68002B05D0D9
S1130C50FB7BB9681846FFF7AFFF04E0FB7BB9687C
S1130C601846FFF77DFFBB68072B20D82D49FA7B78
S1130C701346DB0013449B000B4404331A68BB681F
S1130C809B000F2101FA03F3DB431340B97BBA68DD
S1130C90920001FA02F211462248FA7B19431346E4
S1130CA0DB0013449B0003440433196025E01D4911
S1130CB0FA7B1346DB0013449B000B4408331A6889
S1130CC0BB6803F18043083B9B000F2101FA03F347
S1130CD0DB4302EA0301BA7BBB6803F18043083BB0
S1130CE09B0002FA03F30F48FA7B19431346DB0017
S1130CF013449B00034408331960BB7B002B0DD1C4
S1130D007B68002B05D0FB7BB9681846FFF754FFBE
S1130D1004E0FB7BB9681846FFF722FF00BF1037D9
S1130D20BD4680BD0060004080B485B000AF7860EF
S1130D301A4B5B69DBB29B00DBB203F03C03FB7331
S1130D40164B1B699B09DBB203F00303DAB2FB7B8E
S1130D501343FB737B68FA7B9A70104B1B69DBB2FD
S1130D6003F03F03DAB27B685A700C4B9B691B0992
S1130D70DBB21B01FB73094BDB691B09DBB203F01C
S1130D800F03DAB2FB7B1343FB737B68FA7B1A70A5
S1130D9000BF1437BD4680BC704700BFD0FF0FE0D2
S1130DA080B586B000AFF860B9607A60FB70BB684C
S1130DB0002B03D12448FFF739FDB860FB78202BC2
S1130DC00CD0202B02DC002B05D03AE0402B08D0BD
S1130DD0602B09D035E010237B6108E008237B6198
S1130DE005E006237B6102E004237B6100BFBB684E
S1130DF09A007B69796801FB03F35B0813443B6148
S1130E007B697A6802FB03F33A69B2FBF3F33B6153
S1130E103B69043B3B613B699B013B613A690B4B7A
S1130E2013403B61FB681B6823F06002FB681A6097
S1130E30FB681A68FB781A43FB681A60FB683A6916
S1130E405A611837BD4680BD40810400C0FF1F00B1
S1130E5080B582B000AF786039607B68294A9342DC
S1130E600ED07B68284A93420AD07B68274A934273
S1130E7006D07B68264A934202D07B68254A934277
S1130E8000BF786800F048F83B689B7C002B05D0D5
S1130E907B681B6843F080427B681A603B68DB7C9C
S1130EA0002B07D03B681B7D43F01003DBB21A46CE
S1130EB07B689A653B685B7B1A463B681B8A1343D5
S1130EC03A68D2891A437B685A603B6859683B6820
S1130ED09A683B681B7B7868FFF762FF3B685B7D21
S1130EE0002B05D07B681B6843F480327B681A6052
S1130EF03B681B781A467B68DA6000BF0837BD463A
S1130F0080BD00BF00C0004000C4004000C80040D5
S1130F1000E0004000E4004080B483B000AF78609B
S1130F207B68244A93420ED07B68234A93420AD0BA
S1130F307B68224A934206D07B68214A934202D0BE
S1130F407B68204A934200BF7B6840F6AA62DA605D
S1130F507B6800221A607B6841F205025A607B6854
S1130F6000229A607B6800225A617B680022DA645E
S1130F707B6841F6F9729A647B6800225A657B6843
S1130F800C4A934202D17B6800221A657B680022D6
S1130F909A657B68084A934203D07B68074A934268
S1130FA002D17B680022DA6500BF0C37BD4680BCE5
S1130FB0704700BF00C0004000C4004000C80040AB
S1130FC000E0004000E4004080B483B000AF7860EB
S1130FD00B46FB7000BF7B681B6903F04003002BCA
S1130FE0F9D0FA787B685A6300BF0C37BD4680BCE1
S1130FF07047000080B400AF034BDB6C1B0EDBB208
S11310001846BD4680BC7047B081E00F80B582B001
S113101000AFFFF7EFFF0346FB713B1D1846FFF7D8
S113102083FEFB790F2B0AD93B79022B07D9064B98
S11310301B6823F05003044A43F01003136000BFFD
S11310400837BD4680BD00BFC0800C40B0B588B035
S113105000AFFFF7DBFF01213948FFF77FFB0123D6
S1131060042207210520FFF7D3FD01213548FFF7AE
S113107075FB354B3C461D460FCD0FC495E8030068
S113108084E8030000237B754FF4E133BB60052340
S11310907B7305233B700023BB7400233B73002345
S11310A0FB8100233B750023FB7400237B604FF41A
S11310B080533B823B4619462448FFF7C9FE01236F
S11310C0042200210420FFF7A3FD012304220121AF
S11310D00420FFF79DFD1D4B5B6D1C4A43F4817397
S11310E043F0010353651A4B1B68194A43F4005338
S11310F01360184B1B68174A43F488731360164B2C
S11311001B68154A43F488431360144B1B6803F4AB
S11311100073FB61114B1B6803F48063BB61FB69C3
S1131120002B04D12B210948FFF74EFFEDE7BB69E3
S1131130002BEAD12D210548FFF746FFE5E700BF64
S113114000D2040000320400FC11000000E0004062
S113115044800C402C60004094600040406000409B
S113116008B5074B044613B10021AFF30080054BCB
S11311701868836A03B19847204600F031F800BF2D
S1131180000000001412000070B500250C4E0D4C38
S1131190A41BA410A54209D100F024F800250A4E8E
S11311A00A4CA41BA410A54205D170BD56F82530E5
S11311B098470135EEE756F8253098470135F2E7B0
S11311C06C0000206C0000206C00002070000020E7
S11311D003460244934200D1704703F8011BF9E728
S11311E0FEE700BFF8B500BFF8BC08BC9E467047D8
S11311F0F8B500BFF8BC08BC9E4670470500000067
S11312000000000000C20100000500000010000002
S10F1210000000000C00002000000000A2
S10B121C00EFFF7F0100000058
S1131224006CDC0200800000809FD50000000000F8
S113123400000000000000000000000000000000A6
S11312440000000000000000000000000000000096
S11312540000000000000000000000000000000086
S11312640000000000000000000000000000000076
S11312740000000000000000000000000000000066
S11312840000000000000000000000000101000054
S1071294DD00000075
S90301916A
