S00C00006779616B342E73333708
S11300000000022091010000BD010000BD010000BC
S1130010BD010000BD010000BD010000BD010000E4
S1130020BD010000BD010000BD010000BD010000D4
S1130030BD010000BD010000BD010000BD010000C4
S1130040BD010000BD010000BD010000BD010000B4
S1130050BD010000BD010000BD010000BD010000A4
S1130060BD010000BD010000BD010000BD01000094
S1130070BD010000BD010000BD010000BD01000084
S1130080BD010000BD010000BD010000BD01000074
S1130090E5140000BD010000BD010000BD01000029
S11300A0BD010000BD010000BD010000BD01000054
S11300B0BD010000BD010000BD010000BD01000044
S11300C0BD010000BD010000BD010000BD01000034
S11300D0BD010000BD010000BD01000010B5054CCC
S11300E0237833B9044B13B10448AFF300800123E0
S11300F0237010BD740000200000000014160000DE
S113010008B5034B1BB103490348AFF3008008BD96
S1130110000000007800002014160000154B002B8E
S113012008BF134B9D46A3F5803A00218B460F462A
S11301301348144A121A01F049FA0F4B002B00D04D
S113014098470E4B002B00D0984700200021040054
S11301500D000D48002802D00C48AFF3008001F0D8
S113016011FA2000290001F0D1F901F0F7F900BFDC
S11301700000080000000220000000000000000051
S11301807400002094000020000000000000000023
S1130190064880470649074A074B9A42BEBF51F8B2
S11301A0040B42F8040BF8E7FFF7B8FF350300002F
S11301B0201600000000002074000020FEE700BFAD
S11301C080B400AF034BDB6C1B0EDBB21846BD469C
S11301D080BC7047B081E00F80B582B000AF00F002
S11301E01FF87860074B5B6803F00F037A6822FA04
S11301F003F37B60044A7B6813607B681846083706
S1130200BD4680BD00800C400800002080B400AFD3
S1130210024B1846BD4680BC704700BF006CDC0230
S113022080B582B000AF334BDB6A03F47053B3F58F
S1130230805F0AD0B3F5005F03D0B3F5006F08D038
S11302400BE02D4B1B687B6047E04FF400437B6061
S113025043E02A4B1B687B603FE0264BDB6803F4DA
S1130260E063B3F5007F1BD0B3F5007F05D8002B06
S113027024D0B3F5807F16D02BE0B3F5806F09D07E
S1130280B3F5A06F03D0B3F5407F06D021E01C4B3B
S11302907B6021E01B4B7B601EE01B4B7B601BE003
S11302A01A4B7B6018E0FFF78BFF0346122B02D931
S11302B0174B7B6010E0174B7B600DE0FFF780FF6E
S11302C00346122B02D9144B7B6005E0134B7B6071
S11302D002E000237B6000BF00BF064B1B689B0B42
S11302E003F0070301337A68B2FBF3F318460837C7
S11302F0BD4680BD00800C400400002000000020AA
S1130300003FAB01406F4001809FD500C0D8A700DB
S113031040B56400C0CF6A00804F120040420F0015
S113032080B400AF024B1B681846BD4680BC7047C2
S11303300000002080B400AF00BFBD4680BC704701
S113034080B400AF4FF400431846BD4680BC7047EC
S113035080B400AF4FF47A731846BD4680BC704732
S113036080B400AF024B1B681846BD4680BC704782
S11303700400002080B487B000AFF860B9607A60F0
S1130380FB6803F10473DA00BB6813449B007B61D0
S11303907B697A681A6000BF1C37BD4680BC704711
S11303A080B485B000AF786039607B6803F1047372
S11303B0DA003B6813449B00FB60FB681B6818462B
S11303C01437BD4680BC704780B485B000AF7860F8
S11303D07B68002B03D07B68B3F5004F00BF7B68BC
S11303E0B3FA83F3C3F11F03FB60FB6818461437A9
S11303F0BD4680BC7047000080B400AF034BDB6C8B
S11304001B0EDBB21846BD4680BC7047B081E00FBE
S113041080B400AF034BDB6C1B0CDBB21846BD464B
S113042080BC7047B081E00F80B582B000AFFFF7A9
S1130430EFFF03464A2B04D0792B02D0482B23D05C
S113044024E0154B1B699BB21B029BB203F47C5343
S1130450FB80114B9B691B091B0103F0F0039AB24B
S1130460FB881343FB800C4BDB691B0903F00F0370
S11304709AB2FB881343FB80FB88B3F5017F01D359
S1130480064B04E0064B02E0054B00E0002318464F
S11304900837BD4680BD00BFD0FF0FE000366E01B7
S11304A00048E80180B584B000AF78600123FB60A8
S11304B0FFF7BAFF02467B68934204D80023FB602F
S11304C00023BB600BE0FFF7AFFF03465B007A68D5
S11304D09A4202D80123BB6001E00223BB60FA68A0
S11304E01E210848FFF746FF064B5B6823F4807221
S11304F0BB681B02034913434B6000BF1037BD4662
S113050080BD00BF00800C4080B582B000AF1E21CA
S11305100448FFF745FF78607B6818460837BD46F6
S113052080BD00BF00800C4080B582B000AF214B7D
S11305305B6903F4E063B3F5007F1CD0B3F5007F7F
S113054005D8002B25D0B3F5807F1FD02AE0B3F562
S1130550C06F24D0B3F5E06F1ED0B3F5407F21D136
S1130560FFF74AFF0346122B02D9134B7B601CE0B2
S1130570124B7B6019E0FFF73FFF0346122B02D9B1
S11305800F4B7B6011E00F4B7B600EE00E4B7B60EA
S11305900BE00E4B7B6008E00D4B7B6005E00D4BE0
S11305A07B6002E000237B6000BF7B68184608374D
S11305B0BD4680BD00800C40804F120040420F00B9
S11305C040B56400C0CF6A00C0D8A700809FD500A2
S11305D0406F4001003FAB0180B582B000AF0D48D1
S11305E000F098FA0346FB70FB78072B05D0092B23
S11305F007D1FFF715FE786006E0FFF795FF7860F6
S113060002E000237B6000BF7B6818460837BD46C4
S113061080BD00BF06000C0080B485B000AF7860D8
S11306203960284BDB6B002B14BF01230023BB7202
S1130630244B41F67132DA63224B5B6803F0070303
S1130640FB60FB68012B01D9042B02D10023FB7250
S113065002E00123FB7200BF7B681B4A934207D967
S1130660FB7A002B01D0052300E00423FB6016E095
S11306707B68154A93420BD87B68144A934207D986
S1130680FB7A002B01D0032300E00123FB6006E08A
S1130690FB7A002B01D0022300E00023FB60094B0E
S11306A05B6823F007020749FB6813434B60BB7A7E
S11306B0002B02D0034B0022DA6300BF1437BD467F
S11306C080BC704700000C400048E8010024F4009E
S11306D080B500AFFFF79AFD034600211846FFF7E7
S11306E09BFF00BF80BD80B582B000AF78603960E9
S11306F039687868FFF790FF00BF0837BD4680BDB2
S113070090B585B000AF78600023BB607B68344A45
S1130710934203D0334A934200D000E000BF78688C
S113072000F0F8F90346FB607B682D4A934203D03E
S11307302C4A934206D00CE02B4B9B6A03F0030334
S1130740FB6006E0284B9B6A9B0803F00303FB60F5
S113075000BFFB68032B39D801A252F823F000BF75
S11307609707000071070000790700008107000067
S1130770FFF7E6FDB8602DE0FFF7F2FDB86029E071
S1130780FFF72AFD0446FFF7BFFE0346013324FAB0
S113079003F3BB601EE00023BB607B68104A9342F6
S11307A003D07B680F4A934213D10F4B9A6A7B683C
S11307B00B498B4201D1102300E0142322FA03F3E6
S11307C0002B06D0FFF7C4FDB86002E00023BB6035
S11307D000E000BFBB6818461437BD4690BD00BF9B
S11307E002001A0003001C0000800C4080B483B097
S11307F000AF7860094B5B6D03F00103002B07D158
S113080000BF064B1A6D7B681340002BF9D100E042
S113081000BF0C37BD4680BC704700BF00800C4051
S113082080B582B000AF104800F074F90346FB7045
S1130830FB78032B07D0092B09D0022B0BD1FFF730
S11308408FFD78600AE0FFF77BFD786006E0FFF734
S1130850E7FC786002E000237B6000BF7B681846F9
S11308600837BD4680BD00BF0723220080B586B08F
S113087000AF78600B46FB7000233B617B681B0A6A
S113088003F00F03013B092B45D801A252F823F0D2
S1130890CD080000D3080000B908000017090000C3
S11308A017090000D9080000E30800001709000038
S11308B017090000ED080000194B7B61194800F08E
S11308C03DF803461846FFF7EDFD12E0164B7B6139
S11308D00FE0164B7B610CE0154B7B6101233B6100
S11308E007E0144B7B6110233B6102E0124B7B61F8
S11308F000BF7B681B0B03F01F03FB603B69002BED
S113090002D03869FFF772FFFB781A46F9687869F4
S1130910FFF730FD00E000BF1837BD4680BD00BFC3
S113092040800C400043020008800C4044800C408E
S113093058800C4060800C4078800C4090B585B0A5
S113094000AF78607B6803F47813B3F5B01F00F050
S1130950AB80B3F5B01F1AD8B3F5402F00F0BF80B9
S1130960B3F5402F08D8B3F5003F3CD0B3F5802F42
S11309702DD0002B27D0BEE0B3F5801F3CD0B3F5BB
S1130980A01F47D0B3F5602F00F0AD80B3E0B3F5FE
S1130990081F00F0AC80B3F5081F0AD8B3F5D01FC8
S11309A025D0B3F5E01F7AD0B3F5C01F00F08980DD
S11309B0A1E0B3F5201F4ED0B3F5281F62D0B3F5E4
S11309C0181F35D097E0FFF72BFCF86096E0FFF78F
S11309D027FCF8604C4B9B6803F00F03FA6822FA7B
S11309E003F3FB608AE0FFF7F7FBF86086E0474813
S11309F0FFF786FEF86081E04448FFF781FEF86067
S1130A00414B9B6E1B0903F00F03FA6822FA03F3B0
S1130A10FB6073E03D48FFF773FEF8603A4B9B6E52
S1130A201B0A03F00F03FA6822FA03F3FB6065E084
S1130A303648FFF765FEF860334B9B6E1B0B03F0E3
S1130A4003041020FFF7C0FC03462344FA6822FA8B
S1130A5003F3FB6052E02D48FFF752FEF8602A4B87
S1130A609B6E1B0B03F00303FA6822FA03F3FB608B
S1130A70254BDB6F03F007030133FA68B2FBF3F392
S1130A80FB603BE02148FFF73BFEF8601E4B9B6E8A
S1130A9003F00303FA6822FA03F3FB602EE01C4818
S1130AA0FFF72EFEF86029E01948FFF729FEF860E9
S1130AB0154B1B6F03F00303FA6822FA03F3FB6080
S1130AC01CE01348FFF71CFEF8600F4B1B6F1B095B
S1130AD003F00303FA6822FA03F3FB600EE0FFF766
S1130AE07BFDF8600AE0FFF71FFDF86006E0FFF702
S1130AF097FEF86002E00023FB6000BFFB68184625
S1130B001437BD4690BD00BF00800C4002001A009F
S1130B1003001C0080B485B000AF78600123FB7330
S1130B207B6803F00F03BB60BB68013B062B00F23C
S1130B30938001A252F823F0550B00008B0B0000A8
S1130B40C70B0000590C0000590C0000030C0000F6
S1130B50250C0000454BDB6A03F47053B3F5805F4A
S1130B6009D0B3F5005F03D0B3F5006F06D008E0F9
S1130B700223FB7308E00323FB7305E00423FB73E8
S1130B8002E00523FB7300BF69E0384B9B6A03F066
S1130B900303022B06D0032B07D0012B08D1032318
S1130BA0FB730FE00223FB730CE00623FB7309E0E5
S1130BB02E4B9B6A03F48033002B02D00A23FB7371
S1130BC000E000BF4BE0294B9B6A03F00C03082BA9
S1130BD006D00C2B07D0042B08D10323FB730FE0A2
S1130BE00223FB730CE00623FB7309E01F4B9B6A93
S1130BF003F48013002B02D00A23FB7300E000BF30
S1130C002DE01A4B1B6803F08053002B03D0B3F183
S1130C10805F03D023E00723FB7302E00923FB7307
S1130C2000BF1CE0114BDB6A03F46033B3F5803F73
S1130C3008D0B3F5003F08D0B3F5004F08D109231D
S1130C40FB7308E00223FB7305E00323FB7302E05C
S1130C500123FB7300BF02E00023FB7300BFFB7B97
S1130C6018461437BD4680BC704700BF00800C4056
S1130C7080B588B000AF78600B46FB700323FB613E
S1130C800323FB7600233B617B6803F00F03FB60C7
S1130C90FB68013B062B00F2288101A252F823F0E5
S1130CA0BD0C0000930D0000930D0000EB0E00003E
S1130CB0EB0E0000590E0000830E0000FB78023B8F
S1130CC0082B00F2148101A252F823F0F10C000069
S1130CD0FB0C0000050D0000470D0000EF0E0000A6
S1130CE0EF0E0000EF0E0000EF0E0000EF0E00000C
S1130CF00423FB610023FB7631E00323FB61012322
S1130D00FB762CE00223FB610223FB76FFF78CFBCE
S1130D10034601331846FFF7C5FBFFF701FB024604
S1130D20764B9A4206D9764B1B68754A43F06003AA
S1130D30136014E0724B1B6823F06003704A43F0A5
S1130D40200313600BE00123FB610323FB76FFF711
S1130D506BFB034601331846FFF7A4FB00BFFB7E81
S1130D6001220121184600F0D1F8FFF7B1FC644AD2
S1130D70FB6953626348FFF7E1FD03461846FFF73A
S1130D8091FBFFF729FAB8600021B868FFF7ABFCC4
S1130D90B0E0FB78013B092B00F2AB8001A252F8D2
S1130DA023F000BFCD0D0000D30D0000E30D0000C3
S1130DB0F30E0000F30E0000F30D0000F30E00002C
S1130DC0F30E0000F30E00000F0E000000237B6101
S1130DD022E001220121002000F098F802237B6127
S1130DE01AE001220121012000F090F801237B6127
S1130DF012E0FFF7F1F9B860B868FFF753FB01227E
S1130E0004214148FFF7B6FA03237B6104E0002381
S1130E107B6101233B6100BFFB68022B0DD1384B82
S1130E209B6A23F4803323F003037A691A433B69F2
S1130E301B04334913438B625CE0314B9B6A23F4FC
S1130E40801323F00C037A6992001A433B691B0553
S1130E502B4913438B624DE0FB78072B02D0092BFF
S1130E6007D047E0264B1B68254A23F080531360C4
S1130E7006E0234B1B68224A43F08053136000BFF3
S1130E8038E0FB78032B14D0092B22D0022B00D09E
S1130E9030E001220121002000F038F8184B4022F4
S1130EA05A6200BF164BDB6A03F48033002BF9D07F
S1130EB01AE001220121012000F028F8104B6022E1
S1130EC05A6200BF0E4BDB6A03F40033002BF9D0E7
S1130ED00AE00B4B20225A6200BF094BDB6A03F481
S1130EE00043002BF9D000BF04E000BF02E000BFC4
S1130EF000E000BF2037BD4680BD00BF0048E801C8
S1130F0000800C400043020040800C4080B586B055
S1130F1000AF0346FB710B46BB7113467B71FB7933
S1130F20042B48D801A252F823F000BF790F000027
S1130F306B0F00004F0F0000410F00005D0F000019
S1130F4001233B610223FB6001237B611DE0042339
S1130F503B610823FB6003237B6116E010233B61A4
S1130F602023FB6005237B610FE040233B6180234A
S1130F70FB6007237B6108E04FF480733B614FF40F
S1130F800073FB6009237B6100BFBB79002B0ED08B
S1130F900B4A3B6913627B79002B0DD000BF796942
S1130FA00848FFF7FDF90346002BF8D004E0044A93
S1130FB0FB68136200E000BF1837BD4680BD00BF68
S1130FC000800C402C800C4080B485B000AF786069
S1130FD0194B5B69DBB29B00DBB203F03C03FB7390
S1130FE0154B1B699B0903F00303DAB2FB7B134324
S1130FF0FB737B68FA7B9A700F4B1B69DBB203F0BF
S11310003F03DAB27B685A700B4B9B691B09DBB256
S11310101B01FB73084BDB691B0903F00F03DAB2F6
S1131020FB7B1343FB737B68FA7B1A7000BF143796
S1131030BD4680BC704700BFD0FF0FE080B586B0CE
S113104000AFF860B9607A60FB70BB68002B03D115
S11310502448FFF773FCB860FB78202B0CD0202BBE
S113106002DC002B05D03AE0402B08D0602B09D0DD
S113107035E010237B6108E008237B6105E006234B
S11310807B6102E004237B6100BFBB689A007B693B
S1131090796801FB03F35B0813443B617B697A685D
S11310A002FB03F33A69B2FBF3F33B613B69043B94
S11310B03B613B699B013B613A690B4B13403B61CC
S11310C0FB681B6823F06002FB681A60FB681A68FF
S11310D0FB781A43FB681A60FB683A695A6118374F
S11310E0BD4680BD40810400C0FF1F0080B582B0B2
S11310F000AF786039607B68244A93420ED07B68E5
S1131100234A93420AD07B68224A934206D07B68E2
S1131110214A934202D07B68204A934200BF7868F8
S113112000F06EF83B689B7C002B05D07B681B6845
S113113043F080427B681A603B68DB7C002B07D05D
S11311403B681B7D43F01003DBB21A467B689A654B
S11311503B685B7B1A463B681B8A13433A68D28917
S11311601A437B685A603B6859683B689A683B68D5
S11311701B7B7868FFF762FF3B681B781A467B6825
S1131180DA6000BF0837BD4680BD00BF00C0004024
S113119000C4004000C8004000E0004000E40040FB
S11311A080B485B000AF786039607B689B6823F0B9
S11311B07703FB603B681B78002B03D0FB6843F08C
S11311C04003FB603B689B78002B03D0FB6843F033
S11311D02003FB603B685B78002B03D0FB6843F083
S11311E01003FB603B68DB781A46FB681343FB6023
S11311F07B68FA689A6000BF1437BD4680BC7047AC
S113120080B483B000AF78607B68244A93420ED0E8
S11312107B68234A93420AD07B68224A934206D0D1
S11312207B68214A934202D07B68204A934200BFE4
S11312307B6840F6AA62DA607B6800221A607B68E9
S113124041F205025A607B6800229A607B680022A2
S11312505A617B680022DA647B6841F6F9729A6409
S11312607B6800225A657B680C4A934202D17B68F2
S113127000221A657B6800229A657B68084A9342BB
S113128003D07B68074A934202D17B680022DA6567
S113129000BF0C37BD4680BC704700BF00C0004093
S11312A000C4004000C8004000E0004000E40040EA
S11312B080B483B000AF78600B46FB7000BF7B68DE
S11312C01B6903F04003002BF9D0FA787B685A635A
S11312D000BF0C37BD4680BC704780B500AF00F03E
S11312E007F800F01FF800F057F800BF80BD0000B9
S11312F080B500AF05211120FFF7BAFC0121064893
S1131300FFF7B4FA01210548FFF7B0FA01210448B8
S1131310FFF7ACFA00BF80BD408104000032040036
S113132000D20400B0B588B000AF194B07F108042F
S11313301D460FCD0FC495E8030084E803004FF465
S1131340E1333B6105237B750023FB824FF480531B
S11313503B8300233B750023BB760023FB760023ED
S11313603B7707F1080319460A48FFF7BFFE00233D
S11313707B6000237B710023BB710023FB713B1D49
S113138019460448FFF70CFF00BF2037BD46B0BD27
S1131390F815000000E0004080B400AF1F4BD3F804
S11313A09C301E4A43F00103C2F89C301B4BD3F817
S11313B0943023F00F03194A43F00403C2F8943025
S11313C0164BD3F8943023F0F003144A43F010037F
S11313D0C2F89430114BD3F8C030104A43F0800364
S11313E0C2F8C0300D4BD3F8B83023F070430B4A29
S11313F043F08043C2F8B830094B5B6D23F4E063DB
S1131400074A43F480735365054B5B6D044A43F00C
S11314100303536500BFBD4680BC704700600040B5
S113142000E0004080B483B000AF0346FB71FB7959
S113143003F01F02064997F907305B09012000FAFF
S113144002F241F8232000BF0C37BD4680BC704730
S113145000E100E080B400AF034BDB6C1B0EDBB299
S11314601846BD4680BC7047B081E00F80B582B09D
S113147000AFFFF7EFFF0346FB713B1D1846FFF774
S1131480A3FDFB790F2B0AD93B79022B07D9064B15
S11314901B6823F05003044A43F01003136000BF99
S11314A00837BD4680BD00BFC0800C4080B483B007
S11314B000AF786039607B68DA6C3B681A437B68FC
S11314C0DA6400BF0C37BD4680BC704780B483B07B
S11314D000AF78607B68DB69DBB218460C37BD4629
S11314E080BC704780B500AF0548FFF7EFFF0346A7
S11314F01A46044B1A70044B01221A7000BF80BDB7
S113150000E00040910000209000002080B500AF72
S1131510FFF7ACFFFFF7E1FE25210D48FFF7C8FEFA
S113152004210B48FFF7C2FF1420FFF77BFF094B90
S11315301B78DBB2002BFAD0074B1B78DBB21946C1
S11315400348FFF7B5FE034B00221A70EFE700BF14
S113155000E00040900000209100002008B5074BF7
S1131560044613B10021AFF30080054B1868836A69
S113157003B19847204600F031F800BF0000000096
S11315801016000070B500250C4E0D4CA41BA410C1
S1131590A54209D100F024F800250A4E0A4CA41BE8
S11315A0A410A54205D170BD56F8253098470135E1
S11315B0EEE756F8253098470135F2E76C00002035
S11315C06C0000206C0000207000002003460244E0
S11315D0934200D1704703F8011BF9E7FEE700BF0F
S11315E0F8B500BFF8BC08BC9E467047F8B500BF0C
S11315F0F8BC08BC9E4670470500000000000000CF
S113160000C20100000500000010000000000000FE
S10B16100C00002000000000A2
S10B161804EBFF7F0100000058
S1131620006CDC0200800000809FD50000000000F8
S113163000000000000000000000000000000000A6
S11316400000000000000000000000000000000096
S11316500000000000000000000000000000000086
S11316600000000000000000000000000000000076
S11316700000000000000000000000000000000066
S11316800000000000000000000000000101000054
S1071690DD00000075
S90301916A
