S00C00006779616B322E7333370A
S11300000000022091010000BD010000BD010000BC
S1130010BD010000BD010000BD010000BD010000E4
S1130020BD010000BD010000BD010000BD010000D4
S1130030BD010000BD010000BD010000BD010000C4
S1130040BD010000BD010000BD010000BD010000B4
S1130050BD010000BD010000BD010000BD010000A4
S1130060BD010000BD010000BD010000BD01000094
S1130070BD010000BD010000BD010000BD01000084
S1130080BD010000BD010000BD010000BD01000074
S1130090BD010000BD010000BD010000BD01000064
S11300A0BD010000BD010000BD010000BD01000054
S11300B0BD010000BD010000BD010000BD01000044
S11300C0BD010000BD010000BD010000BD01000034
S11300D0BD010000BD010000BD01000010B5054CCC
S11300E0237833B9044B13B10448AFF300800123E0
S11300F0237010BD6800002000000000F003000021
S113010008B5034B1BB103490348AFF3008008BD96
S1130110000000006C000020F0030000154B002BD1
S113012008BF134B9D46A3F5803A00218B460F462A
S11301301348144A121A00F043F90F4B002B00D055
S113014098470E4B002B00D0984700200021040054
S11301500D000D48002802D00C48AFF3008000F0D9
S11301600BF92000290000F099F800F0F1F800BF25
S11301700000080000000220000000000000000051
S1130180680000208400002000000000000000003F
S1130190064880470649074A074B9A42BEBF51F8B2
S11301A0040B42F8040BF8E7FFF7B8FFC1010000A5
S11301B0FC0300000000002068000020FEE700BFF0
S11301C080B400AF00BFBD4680BC704780B485B02A
S11301D000AF78601A4B5B69DBB29B00DBB203F0C3
S11301E03C03FB73164B1B699B09DBB203F003034F
S11301F0DAB2FB7B1343FB737B68FA7B9A70104B78
S11302001B69DBB203F03F03DAB27B685A700C4B14
S11302109B691B09DBB21B01FB73094BDB691B09DF
S1130220DBB203F00F03DAB2FB7B1343FB737B688F
S1130230FA7B1A7000BF1437BD4680BC704700BFFC
S1130240D0FF0FE080B400AF034BDB6C1B0EDBB2BE
S11302501846BD4680BC7047B081E00F80B582B0BF
S113026000AFFFF7EFFF0346FB713B1D1846FFF796
S1130270ADFFFB790F2B0AD93B79022B07D9064B2B
S11302801B6823F05003044A43F01003136000BFBB
S11302900837BD4680BD00BFC0800C4080B584B027
S11302A000AF0023FB60FFF7D9FF234B1B68224AF2
S11302B043F400531360214B1B68204A43F48873B2
S11302C013601F4B1B681E4A43F4884313601D4B85
S11302D01B6803F400737B601A4B1B6803F4806390
S11302E03B60FB680133FB60FB68174A934210D103
S11302F07A683B681343002B0BD07B689B097B60B7
S11303003B681B0A3B607A683B681343DB43BB6072
S11303100CE07A683B681343002B07D10023FB6091
S11303207A683B681343DB43DB09BB60074ABB685D
S113033003F00C031360CAE744800C402C600040B7
S11303409460004040600040002D31019C600040FA
S113035008B5074B044613B10021AFF30080054BE9
S11303601868836A03B19847204600F031F800BF4B
S113037000000000EC03000070B500250C4E0D4C8D
S1130380A41BA410A54209D100F024F800250A4EAC
S11303900A4CA41BA410A54205D170BD56F8253003
S11303A098470135EEE756F8253098470135F2E7CE
S11303B06000002060000020600000206400002035
S11303C003460244934200D1704703F8011BF9E746
S11303D0FEE700BFF8B500BFF8BC08BC9E467047F6
S11303E0F8B500BFF8BC08BC9E467047000000206A
S10703F00000000005
S10B03F428FDFF7F0100000059
S11303FC00000000000000000000000000000000ED
S113040C00000000000000000000000000000000DC
S113041C00000000000000000000000000000000CC
S113042C00000000000000000000000000000000BC
S113043C00000000000000000000000000000000AC
S113044C000000000000000000000000000000009C
S10B045C01010000DD000000B5
S90301916A
